8=FIX.4.2|9=69|35=A|34=1|49=EXEC42|52=20200515-03:03:55.143|56=BANZAI42|98=0|108=30|10=160|8=FIX.4.2|9=131|35=8|34=2|49=EXEC42|52=20200515-03:03:55.232|56=BANZAI42|6=0|11=Cld-1234|14=0|17=789|20=0|37=133456|39=0|54=1|55=6758|150=0|151=56|10=057|8=FIX.4.2|9=57|35=0|34=3|49=EXEC42|52=20200515-03:04:25.949|56=BANZAI42|10=129|8=FIX.4.2|9=57|35=0|34=4|49=EXEC42|52=20200515-03:04:56.077|56=BANZAI42|10=126|8=FIX.4.2|9=57|35=0|34=5|49=EXEC42|52=20200515-03:05:26.079|56=BANZAI42|10=127|8=FIX.4.2|9=57|35=0|34=6|49=EXEC42|52=20200515-03:05:56.947|56=BANZAI42|10=135|8=FIX.4.2|9=57|35=0|34=7|49=EXEC42|52=20200515-03:06:26.947|56=BANZAI42|10=134|8=FIX.4.2|9=57|35=0|34=8|49=EXEC42|52=20200515-03:06:56.947|56=BANZAI42|10=138|8=FIX.4.2|9=57|35=0|34=9|49=EXEC42|52=20200515-03:07:26.948|56=BANZAI42|10=138|8=FIX.4.2|9=58|35=0|34=10|49=EXEC42|52=20200515-03:07:57.947|56=BANZAI42|10=182|8=FIX.4.2|9=58|35=0|34=11|49=EXEC42|52=20200515-03:08:27.948|56=BANZAI42|10=182|8=FIX.4.2|9=58|35=0|34=12|49=EXEC42|52=20200515-03:08:58.947|56=BANZAI42|10=186|8=FIX.4.2|9=58|35=0|34=13|49=EXEC42|52=20200515-03:09:28.947|56=BANZAI42|10=185|